:100000000C9463000C948B000C948B000C948B006C
:100010000C948B000C948B000C948B000C948B0034
:100020000C948B000C948B000C948B000C948B0024
:100030000C948B000C948B000C948B000C948B0014
:100040000C9418050C948B000C9488050C94620594
:100050000C948B000C948B000C948B000C948B00F4
:100060000C948B000C948B006364696E6F707375D5
:1000700078585B0000000000240027002A000000E0
:100080000000250028002B000404040404040404D8
:100090000202020202020303030303030102040833
:1000A00010204080010204081020010204081020E2
:1000B0000000000800020100000304070000000027
:1000C000000000006A0611241FBECFEFD8E0DEBF9B
:1000D000CDBF23E0AAE8B2E001C01D92A43CB20764
:1000E000E1F712E0A0E0B1E0ECEAF8E102C005902F
:1000F0000D92AA38B107D9F710E0C3E6D0E004C0EA
:100100002197FE010E942C07C236D107C9F70E9431
:10011000BA050C94540C0C94000090E0FC01E055DE
:10012000FF4F2491FC01E456FF4F3491FC01E85746
:10013000FF4FE491EE23C9F0222339F0233001F17F
:10014000A8F4213019F1223029F1F0E0EE0FFF1F61
:10015000E258FF4FA591B4918FB7F894EC916111DB
:1001600026C030953E233C938FBF08952730A9F0D9
:100170002830C9F0243049F7809180008F7D03C07A
:10018000809180008F7780938000DFCF84B58F7758
:1001900084BDDBCF84B58F7DFBCF8091B0008F779E
:1001A0008093B000D2CF8091B0008F7DF9CF3E2BED
:1001B000DACFAF92BF92CF92DF92EF92FF920F937E
:1001C0001F93CF93DF936C017B018B01040F151FED
:1001D000EB015E01AE18BF08C017D10759F0699155
:1001E000D601ED91FC910190F081E02DC6010995B9
:1001F000892B79F7C501DF91CF911F910F91FF9066
:10020000EF90DF90CF90BF90AF900895FC01538D99
:10021000448D252F30E0842F90E0821B930B5417E0
:1002200010F0CF96089501970895FC01918D828D6D
:10023000981761F0A28DAE0FBF2FB11D5D968C9106
:10024000928D9F5F9F73928F90E008958FEF9FEF45
:100250000895FC01918D828D981731F0828DE80F01
:10026000F11D858D90E008958FEF9FEF0895FC01BB
:10027000918D228D892F90E0805C9F4F821B910988
:100280008F739927089581E293E00E94370121E05E
:10029000892B09F420E0822F089580E090E0892BDB
:1002A00029F00E94430181110C9400000895FC0183
:1002B000A48DA80FB92FB11DA35ABF4F2C91848DC7
:1002C00090E001968F739927848FA689B7892C9324
:1002D000A089B1898C91837080648C93938D848D77
:1002E000981306C00288F389E02D80818F7D80837A
:1002F0000895EF92FF920F931F93CF93DF93EC013A
:1003000081E0888F9B8D8C8D98131AC0E889F989BC
:10031000808185FF15C09FB7F894EE89FF896083BF
:10032000E889F98980818370806480839FBF81E040
:1003300090E0DF91CF911F910F91FF90EF90089582
:10034000F62E0B8D10E00F5F1F4F0F731127E02E5D
:100350008C8D8E110CC00FB607FCFACFE889F98995
:10036000808185FFF5CFCE010E945701F1CFEB8D43
:10037000EC0FFD2FF11DE35AFF4FF0829FB7F89469
:100380000B8FEA89FB8980818062CFCFCF93DF9387
:10039000EC01888D8823B9F0AA89BB89E889F9899D
:1003A0008C9185FD03C0808186FD0DC00FB607FCD2
:1003B000F7CF8C9185FFF2CF808185FFEDCFCE0105
:1003C0000E945701E9CFDF91CF91089581E293E038
:1003D0000E943701892B29F081E293E00E941501E8
:1003E000F5CF0895FC0101900020E9F73197AF01A6
:1003F000481B590BBC0181E293E00C94D900CF93C8
:10040000DF93EB01811116C08EE191E00E94F201B1
:100410004C815D816881798181E293E00E94D900FD
:1004200080E391E00E94F20181E293E0DF91CF91BD
:100430000C94C60186E291E0E9CFFC0180819181B4
:10044000009711F00C94CE070895EF92FF920F934E
:100450001F93CF93DF93EC017B01198218821B82DB
:100460001A821D821C82FB0101900020E9F731975E
:100470008F01061B170BB8016F5F7F4F90E080E084
:100480000E9457080097B9F0998388831B830A83D9
:100490002C813D81232B11F4FC0110821D830C83E0
:1004A000B70188819981DF91CF911F910F91FF90C2
:1004B000EF900C941D0988819981009711F00E949A
:1004C000CE07198218821D821C821B821A82DF913C
:1004D000CF911F910F91FF90EF9008952F923F922F
:1004E0004F925F927F928F929F92AF92BF92CF92E4
:1004F000DF92EF92FF920F931F93CF93DF93CDB7CD
:10050000DEB7CC50D4400FB6F894DEBF0FBECDBFDF
:1005100081E293E00E943701181619065CF481E22B
:1005200093E00E942901CC9729F081E293E00E9498
:100530001501EECF81E293E00E94370118161906EB
:100540000CF0B8C181E293E00E942901CC9709F038
:10055000B1C181E293E00E9415019E012F5F3F4FE0
:10056000790180E092E0D901FC011D923197E9F711
:100570006901590110E000E02FB7F89480911D0344
:1005800090911E03A0911F03B09120032FBF809371
:10059000290390932A03A0932B03B0932C0381E2A9
:1005A00093E00E94150197FFDBC12FB7F89480916B
:1005B0001D0390911E03A0911F03B09120032FBF34
:1005C0004091290350912A0360912B0370912C03D1
:1005D000841B950BA60BB70B409125035091260366
:1005E000609127037091280384179507A607B70722
:1005F000B0F2012B09F0C2C163E371E0CE018F5F5D
:100600009D4F0E942502BE016F5F7D4F80E00E94DA
:10061000FF01CE018F5F9D4F0E941D02F0C149E096
:1006200050E067E771E0C7010E9424098C01892B23
:1006300081F5CE010A960E949706E9E0EE0EF11CC4
:10064000D6012D916D01022E000C330B02271327CA
:10065000AE15BF05A9F78017910779F460E082E035
:100660000E948D0060E083E00E948D0060E084E0E5
:100670000E948D0061E871E0B0C169EA71E0CE01CD
:100680008F5F9D4F0E942502BE016F5F7D4F80E00E
:10069000ADC16BE370E0C7010E9441096C018E019E
:1006A0000F5F1D4F6BEC71E0009731F0FC01818111
:1006B00081110BC06DEE71E0C8010E942502B801E6
:1006C00080E00E94FF01C801A7CFC60101960E94E9
:1006D00097065C0180E092E0D801FC011D92319701
:1006E000E9F7A6014E195F094F5F5F4FB701C801D7
:1006F0000E943209F80101900020E9F73197E01BD0
:10070000F10BD80190E080E09D01201B310B2E17EA
:100710003F0738F42D91022E000C330B82279327CC
:10072000F3CF8A159B0589F062E172E0CE018F5FFD
:100730009B4F0E942502BE016F5F7B4F80E00E94AD
:10074000FF01CE018F5F9B4F67CF1092170310926E
:1007500016036FE771E0C8010E94B5068C017E01A7
:10076000F5EFEF1AFBEFFF0A6E0129EFC21A2BEF2C
:10077000D20A5E0137EFA31A3BEFB30A20E2822EC2
:1007800022E0922E37E0732E0115110509F47EC088
:10079000FF92EF92DF92CF92BF92AF929F928F9291
:1007A0001F930F930E944C090FB6F894DEBF0FBE43
:1007B000CDBF039709F05EC0D5012D913C916BE24E
:1007C00072E02330310508F044C080911603909107
:1007D000170362E472E04497E4F5F701A081B18168
:1007E000F601408151818FB7F89420901D0330901D
:1007F0001E0340901F03509020038FBF809116036B
:1008000090911703789EF001799EF00D1124E65720
:10081000FD4F052E000C660B770B240E351E461E71
:10082000571E20823182428253823583248321E005
:10083000AB2B09F420E02683019690931703809355
:1008400016036FE771E090E080E00E94B5068C012E
:100850009BCFCE018F5F9B4F0E942502BE016F5F31
:100860007B4F80E00E94FF01CE018F5F9B4F0E9473
:100870001D02E7CF85E592E00E94F201C8010E94C7
:10088000F20180E391E00E94F201DBCF67E772E0C2
:10089000CE018F5F9B4F0E942502BE016F5F7B4F91
:1008A00081E00E94FF01CE018F5F9B4F0E941D02DD
:1008B0000E94E6018FB7F89480901D0390901E036C
:1008C000A0901F03B09020038FBFF12CE12C97E084
:1008D000792EC0901603D0901703EC14FD040CF091
:1008E0008EC07E9C80017F9C100D112406571D4FE9
:1008F000F80180819181A281B381A5019401281B17
:10090000390B4A0B5B0BDA01C901B7FD25C0048026
:10091000F581E02DEE0FFF1FE85EFE4FD801169621
:100920006C9180810E948D00C701B1E0CB1AD10883
:100930008C159D0564F4019627E0F8013796D801DF
:1009400001900D922A95E1F7095F1F4FF1CFD092E8
:100950001703C0921603BDCFEFEFEE1AFE0AB9CF10
:100960008E33910509F445CED5018D935D010F5F5E
:100970001F4F0F3FB1E01B0709F0FECD45E050E0EF
:1009800062E471E0C7010E942409892B09F047CE77
:10099000CE0106960E94970629813A8123273B8142
:1009A00023273C8123273D812327022E000C330B74
:1009B0008217930711F5109217031092160360E047
:1009C00082E00E948D0060E083E00E948D0060E084
:1009D00084E00E948D0068E471E0CE018F5F9D4F3E
:1009E0000E942502BE016F5F7D4F81E00E94FF01E2
:1009F000CE018F5F9D4F0E941D020E94E601C45FE1
:100A0000DB4F0FB6F894DEBF0FBECDBFDF91CF91A5
:100A10001F910F91FF90EF90DF90CF90BF90AF901C
:100A20009F908F907F905F904F903F902F90089570
:100A30001F920F920FB60F9211242F933F938F9313
:100A40009F93AF93BF9380911D0390911E03A0913C
:100A50001F03B091200330911C0323E0230F2D3797
:100A600058F50196A11DB11D20931C0380931D0311
:100A700090931E03A0931F03B0932003809118034B
:100A800090911903A0911A03B0911B030196A11D27
:100A9000B11D8093180390931903A0931A03B09388
:100AA0001B03BF91AF919F918F913F912F910F9019
:100AB0000FBE0F901F90189526E8230F0296A11DD8
:100AC000B11DD2CF1F920F920FB60F9211242F9308
:100AD0003F934F935F936F937F938F939F93AF93C6
:100AE000BF93EF93FF9381E293E00E945701FF9140
:100AF000EF91BF91AF919F918F917F916F915F9196
:100B00004F913F912F910F900FBE0F901F9018950E
:100B10001F920F920FB60F9211242F938F939F93D2
:100B2000EF93FF93E0913103F09132038081E091E4
:100B30003703F091380382FD1BC0908180913A0306
:100B40008F5F8F7320913B03821741F0E0913A034E
:100B5000F0E0EF5DFC4F958F80933A03FF91EF91AA
:100B60009F918F912F910F900FBE0F901F9018950E
:100B70008081F4CF789484B5826084BD84B581602F
:100B800084BD85B5826085BD85B5816085BD809158
:100B90006E00816080936E001092810080918100D0
:100BA00082608093810080918100816080938100C8
:100BB000809180008160809380008091B10084608A
:100BC0008093B1008091B00081608093B0008091EB
:100BD0007A00846080937A0080917A0082608093AA
:100BE0007A0080917A00816080937A0080917A0007
:100BF000806880937A001092C100E0913103F091F7
:100C0000320382E08083E0912D03F0912E03108265
:100C1000E0912F03F091300380E18083109239033B
:100C2000E0913503F091360386E08083E091330351
:100C3000F0913403808180618083E0913303F091EF
:100C40003403808188608083E0913303F091340322
:100C5000808180688083E0913303F0913403808148
:100C60008F7D8083C8E1D1E00EE111E089919991F7
:100C70009C013327F901E456FF4F449128573F4F19
:100C8000F9012491222399F030E0220F331FF9015A
:100C9000EC58FF4FA591B491F901E258FF4F25910F
:100CA00034912FB7F894EC91E42BEC932FBF60E0D4
:100CB0000E948D000C171D07C9F6C0E0D0E00E940D
:100CC0006E022097E1F30E9443018823C1F30E9442
:100CD0000000F5CFE1E2F3E01382128288EE93E0A8
:100CE000A0E0B0E084839583A683B7838AE091E097
:100CF0009183808385EC90E09587848784EC90E0F5
:100D00009787868780EC90E0918B808B81EC90E0D8
:100D1000938B828B82EC90E0958B848B86EC90E0B9
:100D2000978B868B118E128E138E148E0895FC0174
:100D300088279927E89421912032E9F3293010F08F
:100D40002E30C8F32B3241F02D3239F4689404C0B0
:100D50000E94E106820F911D219120532A30C0F399
:100D60001EF4909581959F4F08954EEB53E00E949D
:100D7000BA060895FA01A191B081009719F410976D
:100D8000E1F0CD01DC01CD010D90002011F4C00196
:100D900013C0FB012191222319F02015D9F7F3CFBD
:100DA000FB012191201519F41E92119606C02223F1
:100DB000C1F70D900020A1F7D001FA01A193B083F3
:100DC00008957AE0979F902D879F802D910D112493
:100DD000089591110C94F206803219F089508550D3
:100DE000C8F708959927882708952F923F924F9228
:100DF0005F926F927F928F929F92AF92BF92CF92AB
:100E0000DF92EF92FF920F931F93CF93DF93CDB7B3
:100E1000DEB7CA1BDB0B0FB6F894DEBF0FBECDBF2B
:100E200009942A88398848885F846E847D848C84FC
:100E30009B84AA84B984C884DF80EE80FD800C8105
:100E40001B81AA81B981CE0FD11D0FB6F894DEBFE8
:100E50000FBECDBFED010895EE0FFF1F0590F49179
:100E6000E02D09940F931F93CF93DF938230910568
:100E700010F482E090E0E091C203F091C30330E00F
:100E800020E0B0E0A0E0309799F42115310509F495
:100E90004AC0281B390B24303105D8F58A819B8143
:100EA0006115710589F1FB0193838283FE0111C0F5
:100EB000408151810281138148175907E0F048179A
:100EC000590799F4109761F012960C9312971396A4
:100ED0001C933296CF01DF91CF911F910F9108950E
:100EE0000093C2031093C303F4CF2115310551F0D1
:100EF0004217530738F0A901DB019A01BD01DF0158
:100F0000F801C1CFEF01F9CF9093C3038093C203DF
:100F1000CDCFFE01E20FF31F81939193225031094F
:100F200039832883D7CF2091C0033091C103232B6D
:100F300041F420910201309103013093C1032093C9
:100F4000C00320910001309101012115310541F4C8
:100F50002DB73EB74091040150910501241B350B7C
:100F6000E091C003F091C103E217F307A0F42E1B38
:100F70003F0B2817390778F0AC014E5F5F4F2417FD
:100F8000350748F04E0F5F1F5093C1034093C003D5
:100F9000819391939FCFF0E0E0E09CCFCF93DF93DC
:100FA0000097E9F0FC01329713821282A091C203EC
:100FB000B091C303ED0130E020E01097A1F420814F
:100FC0003181820F931F2091C0033091C1032817F4
:100FD000390709F061C0F093C103E093C003DF91CA
:100FE000CF910895EA01CE17DF07E8F54A815B81CA
:100FF0009E0141155105B1F7E901FB83EA8349914F
:101000005991C40FD51FEC17FD0761F480819181C0
:101010000296840F951FE9019983888382819381C9
:101020009B838A83F0E0E0E012968D919C91139768
:101030000097B9F52D913C911197CD010296820F41
:10104000931F2091C0033091C1032817390739F647
:10105000309751F51092C3031092C203B093C103AD
:10106000A093C003BCCFD383C28340815181840F3E
:10107000951FC817D90761F44E5F5F4F888199812A
:10108000480F591F518340838A819B8193838283B8
:101090002115310509F0B0CFF093C303E093C203EB
:1010A0009ECFFD01DC01C0CF13821282D7CFB0E00A
:1010B000A0E0EDE5F8E00C94F7068C01009751F400
:1010C000CB010E9432078C01C801CDB7DEB7E0E149
:1010D0000C941307FC01E60FF71F9C012250310905
:1010E000E217F30708F49DC0D901CD91DC91119767
:1010F000C617D70798F0C530D10530F3CE01049755
:101100008617970708F3C61BD70B2297C193D19375
:101110006D937C93CF010E94CE07D6CF5B01AC1AB2
:10112000BD0A4C018C0E9D1EA091C203B091C30359
:10113000512C412CF12CE12C109731F58091C003FA
:101140009091C1038815990509F05CC046165706B1
:1011500008F058C08091000190910101009741F47E
:101160008DB79EB74091040150910501841B950BEA
:10117000E817F90708F055C0F093C103E093C003E6
:10118000F90171836083A0CF8D919C911197129684
:101190006C90129713967C901397A815B90559F582
:1011A0006C0142E0C40ED11CCA14DB0420F1AC0176
:1011B0004A195B09DA011296159780F062827382F0
:1011C00051834083D9016D937C93E114F10471F054
:1011D000D7011396FC93EE93129776CF22968C0F3D
:1011E0009D1FF90191838083F301EFCFF093C30337
:1011F000E093C20369CF4816590608F42C017D011B
:10120000D3019ACFCB010E9432077C01009749F0AD
:10121000AE01B8010E941409C8010E94CE078701DF
:1012200053CF10E000E050CFFB01DC0102C0019081
:101230000D9241505040D8F70895FB01DC01019018
:101240000D920020E1F70895FB01DC014150504070
:1012500030F08D910190801919F40020B9F7881BA6
:10126000990B0895FB01DC014150504048F001907A
:101270000D920020C9F701C01D9241505040E0F787
:101280000895FC0181E090E00190061609F4CF0179
:101290000020D1F701970895AEE0B0E0E2E5F9E073
:1012A0000C94050785E08C838B899C899A838983BC
:1012B000AE01495E5F4F6D897E89CE0101960E9425
:1012C000F00A2E96E2E00C94210720FD09C0FC01F3
:1012D00023FD05C022FF02C07383628351834083D4
:1012E000089544FD17C046FD1DC0DB01FC01AA0F97
:1012F000BB1FEE1FFF1F1094D1F76A0F7B1F8E1FBD
:101300009F1F660F771F881F991F620F711D811D18
:10131000911D089533E0660F771F881F991F315084
:10132000D1F7F3CF34E0F7CF0F931F93CF93DF9331
:101330008C01C8010E94000CEC0197FD08C00E94BE
:10134000E906892BB1F7B801CE010E943C0CCE0111
:10135000DF91CF911F910F9108958F929F92AF923D
:10136000BF92EF92FF920F931F93CF93DF938C0165
:10137000D62F7A01B22E0E94000C9C0133272B320B
:10138000310529F02D323105A9F46894B7F8D15010
:1013900061F480E0DF91CF911F910F91FF90EF906A
:1013A000BF90AF909F908F900895C8010E94000C4D
:1013B00097FDEFCFCB2DCD7F2B2D2073F9F480330C
:1013C000E9F4AA24AA94AD0E89F0C8010E94000C89
:1013D00097FD0CC0282F2F7D283561F4C264D250B0
:1013E00029F0C8010E94000C97FF08C0812C912CA5
:1013F00054011BC0B6FE2BC0C260DA2D812C912C8B
:10140000540120ED280F283028F1C4FD09C02A30EE
:1014100008F1C6FF05C02F7D3FEE320F3630C8F011
:10142000B8010E943C0CC1FFB4CFC7FF08C0B09404
:10143000A09490948094811C911CA11CB11C2C2F11
:10144000B501A401C7010E94650981E0A3CFC26173
:10145000D4CF27504C2FC501B4010E9471094B0114
:101460005C01C260D15009F3C8010E94000C97FFD3
:10147000C8CFD9CFA0E2B0E0E0E4FAE00C94FA06DD
:101480005C01962E7A01CE0101966C0180E2F60194
:1014900011928A95E9F7F501B381890130E020E0E6
:1014A000712C812CA0E041E050E0F801B3FD859162
:1014B000B3FF8191982F8F01811107C010E000E0E8
:1014C000C801A096EDE00C9416078E3519F421158D
:1014D000310541F1A21713064CF48D3549F18D32D7
:1014E00029F4811006C0882483941DC0882009F443
:1014F00064C0E92FE695E695E695EC0DFD2DF11D0E
:10150000892F8770BA0101C0660F8A95EAF780813A
:10151000682B6083791651F0971510F49F5FE9CF1F
:101520009150E7CFA1E02F5F3F4FBFCF812CFBCF82
:10153000882019F08E8180628E83AA2359F0F601EB
:101540009E012F5D3F4F8081809580833196E21709
:10155000F307C9F788248394C5010E94000C97FD06
:1015600016C0E82FE695E695E695EC0DFD2DF11DEC
:10157000208130E0AC014770552702C03595279592
:101580004A95E2F720FD06C0B5010E943C0C882078
:1015900069F094CFE114F10429F0F7018083C701C9
:1015A00001967C019A94812C9110D6CFE114F1041C
:1015B00009F486CFF701108283CFE82FE695E695F0
:1015C000E695EC0DFD2DF11D982F9770BA0101C025
:1015D000660F9A95EAF79081692B6083782EA3CFE6
:1015E000B0E0A0E0E6EFFAE00C94F8066C01EB0145
:1015F0005A01FC0117821682512CF601E380FE018C
:10160000E3FC8591E3FE8191182FEF018823E9F037
:1016100090E00E94E906892B21F0C6010E949409FE
:10162000ECCF153241F4FE01E3FC1591E3FE11917C
:10163000EF01153269F4C6010E94000C97FD8EC0BF
:101640001817D9F2B6010E943C0C852D90E08AC093
:1016500000E01A3231F4E3FC1591E3FE1191EF0141
:1016600001E0F12C20ED210F2A3048F101FF37C0B5
:10167000FF2059F31836B1F11C3609F43DC011238F
:1016800021F3612F70E088E690E00E94F50B892B32
:10169000E1F2912C812C00FD06C0F5018080918043
:1016A000C50102965C011E3679F5F6014681578127
:1016B00070E060E0202FC4010E9465099ECF0260A7
:1016C0006F2D70E090E080E040E20E947109F62EFC
:1016D000FE01E3FC1591E3FE1191EF01C3CFFF245E
:1016E000FA94C8CFFE01E3FC1591E3FE1191EF01DE
:1016F000183609F0C4CF08600460FE01E3FC1591C0
:10170000E3FE1191EF01BBCF1336C1F401FD02C01E
:10171000FF24F394C6010E94000C97FD1FC08114A2
:10172000910429F0F4018083C40101964C01FA94DC
:10173000F110F0CF00FD61CF53945FCF1B35B9F4AA
:101740009E01A4016F2DC6010E943A0AEC01892B6B
:1017500089F7F6018381807309F477CF8FEF9FEFCC
:10176000511073CFCDB7DEB7EFE00C941407C6016C
:101770000E94940997FDF2CF1F36A9F130F4143678
:1017800041F0193639F0006405C01337B9F0153748
:10179000D1F70062202FA4016F2DC6010E94AD0970
:1017A0008111C8CFD6CF8114910429F0F401608251
:1017B000C40101964C01FA94FF2071F0C6010E9409
:1017C000000C3C0197FD08C00E94E906892B59F3E3
:1017D000B601C3010E943C0C8114910409F4AACF04
:1017E000F4011082A7CF0061D5CFFC010590061649
:1017F00021F00020D9F7C00108953197CF01089555
:10180000CF93DF93EC012B8120FF1AC026FF0CC081
:101810002F7B2B838E819F8101969F838E838A816C
:1018200090E0DF91CF91089522FF18C0E881F981FF
:101830008081082E000C990B009729F420622B83DD
:101840008FEF9FEFEECF3196F983E8832E813F81B2
:101850002F5F3F4F3F832E839927E3CFEA85FB8598
:10186000099597FFF3CF2B81019621F080E2822B1F
:101870008B83E6CF80E1FBCFFB01238120FF11C0EA
:1018800026FD0FC08F3F980771F082832F7D206463
:101890002383268137812150310937832683992775
:0C18A00008958FEF9FEF0895F894FFCF9C
:1018AC000000C4038000000000007901D90006018B
:1018BC00C60137011501290102000300040045721D
:1018CC00726F723A2000537563636573733A20002C
:1018DC000D0A00456D70747920636F6D6D616E64D7
:1018EC002E0053544F503B00416C6C206576656E56
:1018FC00747320636C656172656420616E64206F23
:10190C0075747075747320736574204C4F57202850
:10191C0053544F50292E005345545F5A45524F3B58
:10192C0000416C6C206F75747075747320736574E2
:10193C00204C4F5720285345545F5A45524F206333
:10194C006F6D6D616E64292E00435243206D697377
:10195C006D6174636820696E205345545F5A45521B
:10196C004F20636F6D6D616E642E00435243206D8A
:10197C00697373696E6720286E6F2073656D696378
:10198C006F6C6F6E20666F756E64292E0043524328
:10199C00206D697373696E672028656D707479208A
:1019AC0061667465722073656D69636F6C6F6E2907
:1019BC002E00435243206D69736D617463682E0071
:1019CC002825642C25642C25642900496E76616CCD
:1019DC006964206368616E6E656C20696E646578FD
:1019EC002E004576656E742062756666657220669B
:1019FC00756C6C2E005761726E696E673A20536B72
:101A0C00697070696E6720696E76616C69642074A8
:101A1C006F6B656E3A20004576656E747320736348
:0A1A2C00686564756C65642E0000A7
:00000001FF
