:020000040000FA
:100000000C945D000C9485000C9485000C94850084
:100010000C9485000C9485000C9485000C9485004C
:100020000C9485000C9485000C9485000C9485003C
:100030000C9485000C9485000C9485000C9485002C
:100040000C943F040C9485000C94AF040C94890428
:100050000C9485000C9485000C9485000C9485000C
:100060000C9485000C94850000000008000201003B
:100070000003040700000000000000000000000072
:10008000250028002B0000000000240027002A0083
:10009000040404040404040402020202020203032E
:1000A0000303030301020408102040800102040836
:1000B00010200102040810207B0511241FBECFEF81
:1000C000D8E0DEBFCDBF22E0A6E2B1E001C01D92C4
:1000D000AC35B207E1F711E0A0E0B1E0E6E9FCE001
:1000E00002C005900D92A632B107D9F710E0CDE518
:1000F000D0E004C02197FE010E941006CC35D10744
:10010000C9F70E94E1040C9449060C94000090E0A9
:10011000FC01EC55FF4F249180579F4FFC018491C7
:10012000882399F090E0880F991FFC01EA57FF4F50
:10013000A591B491FC01E458FF4F859194918FB73C
:10014000F894EC91E22BEC938FBF089590E0FC01C2
:10015000E859FF4F2491FC01EC55FF4F3491FC010D
:10016000E057FF4FE491EE23C9F0222339F023300A
:1001700001F1A8F4213019F1223029F1F0E0EE0F5D
:10018000FF1FE458FF4FA591B4918FB7F894EC91FD
:10019000611126C030953E233C938FBF08952730D0
:1001A000A9F02830C9F0243049F7809180008F7D74
:1001B00003C0809180008F7780938000DFCF84B56B
:1001C0008F7784BDDBCF84B58F7DFBCF8091B0006E
:1001D0008F778093B000D2CF8091B0008F7DF9CF20
:1001E0003E2BDACF3FB7F8948091B9019091BA01D4
:1001F000A091BB01B091BC0126B5A89B05C02F3FC3
:1002000019F00196A11DB11D3FBFBA2FA92F982F3C
:100210008827BC01CD01620F711D811D911D42E037
:10022000660F771F881F991F4A95D1F70895AF92DF
:10023000BF92CF92DF92EF92FF920F931F93CF93D3
:10024000DF936C017B018B01040F151FEB015E0135
:10025000AE18BF08C017D10759F06991D601ED91CA
:10026000FC910190F081E02DC6010995892B79F769
:10027000C501DF91CF911F910F91FF90EF90DF901B
:10028000CF90BF90AF900895FC01538D448D252FE2
:1002900030E0842F90E0821B930B541710F0CF9620
:1002A000089501970895FC01918D828D981761F052
:1002B000A28DAE0FBF2FB11D5D968C91928D9F5F69
:1002C0009F73928F90E008958FEF9FEF0895FC0148
:1002D000918D828D981731F0828DE80FF11D858DFB
:1002E00090E008958FEF9FEF0895FC01918D228D8E
:1002F000892F90E0805C9F4F821B91098F73992713
:1003000008958DEB91E00E94750121E0892B09F49D
:1003100020E0822F089580E090E0892B29F00E9450
:10032000810181110C9400000895FC01A48DA80F97
:10033000B92FB11DA35ABF4F2C91848D90E0019627
:100340008F739927848FA689B7892C93A089B18947
:100350008C91837080648C93938D848D981306C0E8
:100360000288F389E02D80818F7D80830895EF924C
:10037000FF920F931F93CF93DF93EC0181E0888F5F
:100380009B8D8C8D98131AC0E889F989808185FF2F
:1003900015C09FB7F894EE89FF896083E889F989D1
:1003A00080818370806480839FBF81E090E0DF91D3
:1003B000CF911F910F91FF90EF900895F62E0B8D26
:1003C00010E00F5F1F4F0F731127E02E8C8D8E11E1
:1003D0000CC00FB607FCFACFE889F989808185FF48
:1003E000F5CFCE010E949501F1CFEB8DEC0FFD2FE3
:1003F000F11DE35AFF4FF0829FB7F8940B8FEA8903
:10040000FB8980818062CFCFCF93DF93EC01888D11
:100410008823B9F0AA89BB89E889F9898C9185FD7F
:1004200003C0808186FD0DC00FB607FCF7CF8C910D
:1004300085FFF2CF808185FFEDCFCE010E9495012F
:10044000E9CFDF91CF910895CF93DF93FC01019025
:100450000020E9F73197AF01481B590BBC018DEB28
:1004600091E00E941701EC0142E050E068E171E088
:100470008DEB91E00E9417018C0F9D1FDF91CF91B2
:1004800008954F925F926F927F928F929F92AF9258
:10049000BF92CF92DF92EF92FF920F931F93CF9371
:1004A000DF93CDB7DEB7D4500FB6F894DEBF0FBEE2
:1004B000CDBF0E94F2004B015C01D12CC12C47E062
:1004C000742EE090B201F090B301CE14DF04E4F595
:1004D0007C9C80017D9C100D11240A5D1E4FF8014B
:1004E00080819181A281B381A5019401281B390BE0
:1004F0004A0B5B0BDA01C901B7FD22C00480F5810C
:10050000E02DEE0FFF1FE050FF4FD80116966C91C3
:1005100080810E94A600B1E0EB1AF108F092B301CD
:10052000E092B2017E9CF0017F9CF00D1124EA5D07
:10053000FE4F87E0D80101900D928A95E1F7C1CF77
:10054000EFEFCE1ADE0ABDCF8DEB91E00E94750170
:10055000181619065CF48DEB91E00E946701CC97A8
:1005600029F08DEB91E00E945301EECF8DEB91E0ED
:100570000E947501892B09F455C08DEB91E00E9412
:100580005301CC9709F04EC09E012F5F3F4F690188
:1005900010E000E079012FB7F8948091B5019091B7
:1005A000B601A091B701B091B8012FBF8093C501EA
:1005B0009093C601A093C701B093C8018DEB91E061
:1005C0000E94530197FF4CC12FB7F8948091B50159
:1005D0009091B601A091B701B091B8012FBF4091A1
:1005E000C5015091C6016091C7017091C801841B7B
:1005F000950BA60BB70B4091C1015091C2016091C0
:10060000C3017091C40184179507A607B707B0F21C
:10061000F701E00FF11F1082012BD9F48BE191E07B
:100620000E942402DC5F0FB6F894DEBF0FBECDBF80
:10063000DF91CF911F910F91FF90EF90DF90CF90BE
:10064000BF90AF909F908F907F906F905F904F90F2
:10065000089545E050E06DE171E0C7010E94210678
:10066000892B91F5CE0106960E94A80599812A81D1
:1006700092272B8192272C8192272D8192279813E4
:1006800020C01092B3011092B20160E082E00E949B
:10069000A60060E083E00E94A60060E084E00E9483
:1006A000A60083E291E00E9424028DEB91E00E947B
:1006B0007501892B09F4B6CF8DEB91E00E945301AF
:1006C000F4CF8BE191E0EFCF6BE370E0C7010E94C4
:1006D0003E068C01009709F4A1CFFC01818188239B
:1006E00009F49CCFC80101960E94A8056C010E195F
:1006F0001F090F5F1F4F5E01FFEFAF1AFDEFBF0A2B
:10070000A801B701C5010E942F06F501E00FF11FF6
:100710001082F50180E09F012A193B09201731075B
:1007200018F491918927F7CF082E000C990B8C159E
:100730009D0509F073CF1092B3011092B20161E2EE
:1007400071E0C5010E94C60527E0B22E009709F4AA
:1007500077C068E270E00E9416068C016CE270E0DF
:100760000E9416064C016C012FEFC21AD20A6CE2ED
:1007700070E0C6010E9416063C017C013FEFE31ABF
:10078000F30A69E270E0C7010E941606011511051F
:1007900011F181149104F9F061147104E1F00097F2
:1007A000D1F0DC011C92F3011082D4011C92C8012B
:1007B00001960E94A8058C01C6010E94A8054C0163
:1007C000C7010E94A8057C010330110558F08BE198
:1007D00091E00E94240261E271E090E080E00E94DA
:1007E000C605B4CFC090B201D090B301B4E1CB162E
:1007F000D1046CF7C60101969093B3018093B201C6
:100800000E94F2002B013C01BC9CF001BD9CF00D4C
:100810001124EA5DFE4F28EE33E0D4010E94090660
:10082000460E571E681E791E408251826282738274
:100830001583048381E0EF2809F480E08683CBCF21
:1008400083E291E00E9424028DEB91E00E94750109
:10085000892B09F4E7CE8DEB91E00E945301F4CF90
:100860008E33910509F4D4CED6018D936D010F5FBF
:100870001F4F0F3FB1E01B0709F08DCEC9CE1F926D
:100880000F920FB60F9211242F933F938F939F9344
:10089000AF93BF938091B5019091B601A091B7013C
:1008A000B091B8013091B40123E0230F2D3758F5F2
:1008B0000196A11DB11D2093B4018093B5019093C1
:1008C000B601A093B701B093B8018091B90190919E
:1008D000BA01A091BB01B091BC010196A11DB11D4F
:1008E0008093B9019093BA01A093BB01B093BC016E
:1008F000BF91AF919F918F913F912F910F900FBE1C
:100900000F901F90189526E8230F0296A11DB11D88
:10091000D2CF1F920F920FB60F9211242F933F93B5
:100920004F935F936F937F938F939F93AF93BF93F7
:10093000EF93FF938DEB91E00E949501FF91EF9172
:10094000BF91AF919F918F917F916F915F914F91E7
:100950003F912F910F900FBE0F901F9018951F92EF
:100960000F920FB60F9211242F938F939F93EF93B3
:10097000FF93E091CD01F091CE018081E091D30110
:10098000F091D40182FD1BC090818091D6018F5FD0
:100990008F732091D701821741F0E091D601F0E0EA
:1009A000E354FE4F958F8093D601FF91EF919F9175
:1009B0008F912F910F900FBE0F901F9018958081EF
:1009C000F4CF789484B5826084BD84B5816084BDA1
:1009D00085B5826085BD85B5816085BD80916E00DD
:1009E000816080936E00109281008091810082600E
:1009F000809381008091810081608093810080914B
:100A000080008160809380008091B1008460809339
:100A1000B1008091B00081608093B00080917A0035
:100A2000846080937A0080917A00826080937A005B
:100A300080917A00816080937A0080917A0080684A
:100A400080937A001092C100E091CD01F091CE0127
:100A500082E08083E091C901F091CA011082E091A7
:100A6000CB01F091CC0180E180831092D501E0911F
:100A7000D101F091D20186E08083E091CF01F09125
:100A8000D001808180618083E091CF01F091D0011D
:100A9000808188608083E091CF01F091D0018081D6
:100AA00080688083E091CF01F091D00180818F7DBB
:100AB000808382E00E94870083E00E94870084E0B8
:100AC0000E94870060E082E00E94A60060E083E070
:100AD0000E94A60060E084E00E94A600C0E0D0E092
:100AE0000E9441022097E1F30E9481018823C1F313
:100AF0000E940000F5CFEDEBF1E01382128288EE48
:100B000093E0A0E0B0E084839583A683B7838AE076
:100B100091E09183808385EC90E09587848784ECD5
:100B200090E09787868780EC90E0918B808B81ECBA
:100B300090E0938B828B82EC90E0958B848B86EC9B
:100B400090E0978B868B118E128E138E148E0895E3
:100B5000FC0188279927E89421912032E9F3293074
:100B600010F02E30C8F32B3241F02D3239F4689456
:100B700004C00E94F205820F911D219120532A305A
:100B8000C0F31EF4909581959F4F08954AE552E079
:100B90000E94CB050895FA01A191B081009719F444
:100BA0001097E1F0CD01DC01CD010D90002011F492
:100BB000C00113C0FB012191222319F02015D9F7A0
:100BC000F3CFFB012191201519F41E92119606C056
:100BD0002223C1F70D900020A1F7D001FA01A193C3
:100BE000B08308957AE0979F902D879F802D910D77
:100BF00011240895A29FB001B39FC001A39F700D5F
:100C0000811D1124911DB29F700D811D1124911D14
:100C100008950E94FA05B7FF0895821B930B08956B
:100C2000EE0FFF1F0590F491E02D0994FC018191D6
:100C3000861721F08823D9F7992708953197CF0196
:100C40000895FB01DC014150504030F08D9101903E
:100C5000801919F40020B9F7881B990B0895FB013E
:100C6000DC014150504048F001900D920020C9F73E
:100C700001C01D9241505040E0F70895FC0181E011
:100C800090E00190061609F4CF010020D1F70197FA
:100C90000895F894FFCF0200030004000000000054
:100CA000B7011701440104027501530167010D0AE0
:0C0CB00000300053544F503B0031000056
:107E0000112484B714BE81FFF0D085E080938100F7
:107E100082E08093C00088E18093C10086E0809377
:107E2000C20080E18093C4008EE0C9D0259A86E02C
:107E300020E33CEF91E0309385002093840096BBD3
:107E4000B09BFECF1D9AA8958150A9F7CC24DD24C4
:107E500088248394B5E0AB2EA1E19A2EF3E0BF2EE7
:107E6000A2D0813461F49FD0082FAFD0023811F036
:107E7000013811F484E001C083E08DD089C08234E0
:107E800011F484E103C0853419F485E0A6D080C0E4
:107E9000853579F488D0E82EFF2485D0082F10E0AE
:107EA000102F00270E291F29000F111F8ED06801E7
:107EB0006FC0863521F484E090D080E0DECF843638
:107EC00009F040C070D06FD0082F6DD080E0C81688
:107ED00080E7D80618F4F601B7BEE895C0E0D1E017
:107EE00062D089930C17E1F7F0E0CF16F0E7DF06D8
:107EF00018F0F601B7BEE89568D007B600FCFDCFD4
:107F0000A601A0E0B1E02C9130E011968C91119780
:107F100090E0982F8827822B932B1296FA010C0160
:107F200087BEE89511244E5F5F4FF1E0A038BF0790
:107F300051F7F601A7BEE89507B600FCFDCF97BE46
:107F4000E89526C08437B1F42ED02DD0F82E2BD052
:107F50003CD0F601EF2C8F010F5F1F4F84911BD097
:107F6000EA94F801C1F70894C11CD11CFA94CF0C13
:107F7000D11C0EC0853739F428D08EE10CD085E9AC
:107F80000AD08FE07ACF813511F488E018D01DD067
:107F900080E101D065CF982F8091C00085FFFCCF94
:107FA0009093C60008958091C00087FFFCCF809118
:107FB000C00084FD01C0A8958091C6000895E0E648
:107FC000F0E098E1908380830895EDDF803219F02E
:107FD00088E0F5DFFFCF84E1DECF1F93182FE3DFCA
:107FE0001150E9F7F2DF1F91089580E0E8DFEE27F6
:047FF000FF270994CA
:027FFE00040479
:00000001FF
