:100000000C945D000C9485000C9485000C94850084
:100010000C9485000C9485000C9485000C9485004C
:100020000C9485000C9485000C9485000C9485003C
:100030000C9485000C9485000C9485000C9485002C
:100040000C9473040C9485000C94E3040C94BD048C
:100050000C9485000C9485000C9485000C9485000C
:100060000C9485000C94850000000008000201003B
:100070000003040700000000000000000000000072
:10008000250028002B0000000000240027002A0083
:10009000040404040404040402020202020203032E
:1000A0000303030301020408102040800102040836
:1000B0001020010204081020C40511241FBECFEF38
:1000C000D8E0DEBFCDBF22E0A2EAB1E001C01D92C0
:1000D000A83DB207E1F711E0A0E0B1E0E8E2FDE001
:1000E00002C005900D92A23AB107D9F710E0CDE514
:1000F000D0E004C02197FE010E945906CC35D107FB
:10010000C9F70E9415050C9492060C94000090E02B
:10011000FC01EC55FF4F249180579F4FFC018491C7
:10012000882399F090E0880F991FFC01EA57FF4F50
:10013000A591B491FC01E458FF4F859194918FB73C
:10014000F894EC91E22BEC938FBF089590E0FC01C2
:10015000E859FF4F2491FC01EC55FF4F3491FC010D
:10016000E057FF4FE491EE23C9F0222339F023300A
:1001700001F1A8F4213019F1223029F1F0E0EE0F5D
:10018000FF1FE458FF4FA591B4918FB7F894EC91FD
:10019000611126C030953E233C938FBF08952730D0
:1001A000A9F02830C9F0243049F7809180008F7D74
:1001B00003C0809180008F7780938000DFCF84B56B
:1001C0008F7784BDDBCF84B58F7DFBCF8091B0006E
:1001D0008F778093B000D2CF8091B0008F7DF9CF20
:1001E0003E2BDACF3FB7F8948091350290913602DA
:1001F000A0913702B091380226B5A89B05C02F3FC9
:1002000019F00196A11DB11D3FBFBA2FA92F982F3C
:100210008827BC01CD01620F711D811D911D42E037
:10022000660F771F881F991F4A95D1F70895AF92DF
:10023000BF92CF92DF92EF92FF920F931F93CF93D3
:10024000DF936C017B018B01040F151FEB015E0135
:10025000AE18BF08C017D10759F06991D601ED91CA
:10026000FC910190F081E02DC6010995892B79F769
:10027000C501DF91CF911F910F91FF90EF90DF901B
:10028000CF90BF90AF900895FC01538D448D252FE2
:1002900030E0842F90E0821B930B541710F0CF9620
:1002A000089501970895FC01918D828D981761F052
:1002B000A28DAE0FBF2FB11D5D968C91928D9F5F69
:1002C0009F73928F90E008958FEF9FEF0895FC0148
:1002D000918D828D981731F0828DE80FF11D858DFB
:1002E00090E008958FEF9FEF0895FC01918D228D8E
:1002F000892F90E0805C9F4F821B91098F73992713
:10030000089589E392E00E94750121E0892B09F4A8
:1003100020E0822F089580E090E0892B29F00E9450
:10032000810181110C9400000895FC01A48DA80F97
:10033000B92FB11DA35ABF4F2C91848D90E0019627
:100340008F739927848FA689B7892C93A089B18947
:100350008C91837080648C93938D848D981306C0E8
:100360000288F389E02D80818F7D80830895EF924C
:10037000FF920F931F93CF93DF93EC0181E0888F5F
:100380009B8D8C8D98131AC0E889F989808185FF2F
:1003900015C09FB7F894EE89FF896083E889F989D1
:1003A00080818370806480839FBF81E090E0DF91D3
:1003B000CF911F910F91FF90EF900895F62E0B8D26
:1003C00010E00F5F1F4F0F731127E02E8C8D8E11E1
:1003D0000CC00FB607FCFACFE889F989808185FF48
:1003E000F5CFCE010E949501F1CFEB8DEC0FFD2FE3
:1003F000F11DE35AFF4FF0829FB7F8940B8FEA8903
:10040000FB8980818062CFCFCF93DF93EC01888D11
:100410008823B9F0AA89BB89E889F9898C9185FD7F
:1004200003C0808186FD0DC00FB607FCF7CF8C910D
:1004300085FFF2CF808185FFEDCFCE010E9495012F
:10044000E9CFDF91CF910895FC0101900020E9F7F9
:100450003197AF01481B590BBC0189E392E00C9422
:100460001701CF93DF93D0E0C0E0009719F00E940E
:100470002402EC018EE191E00E9424028C0F9D1F6A
:10048000DF91CF910895CF93DF93EB01811109C0E4
:1004900081E291E00E942402CE01DF91CF910C9481
:1004A000310287E291E0F6CF5F926F927F928F9256
:1004B0009F92AF92BF92CF92DF92EF92FF920F93F3
:1004C0001F93CF93DF93CDB7DEB7D4500FB6F89418
:1004D000DEBF0FBECDBF0E94F2004B015C01D12CEC
:1004E000C12C27E0722EE0902E02F0902F02CE1445
:1004F000DF04E4F57C9C80017D9C100D11240E55D9
:100500001E4FF80180819181A281B381A5019401E0
:10051000281B390B4A0B5B0BDA01C901B7FD22C05E
:100520000480F581E02DEE0FFF1FE050FF4FD80152
:1005300016966C9180810E94A600B1E0EB1AF1083A
:10054000F0922F02E0922E027E9CF0017F9CF00D33
:100550001124EE55FE4F87E0D80101900D928A9547
:10056000E1F7C1CFEFEFCE1ADE0ABDCF89E392E00B
:100570000E947501181619065CF489E392E00E9446
:100580006701CC9729F089E392E00E945301EECFF6
:1005900089E392E00E947501892B09F4A7C089E3E1
:1005A00092E00E945301CC9709F0A0C09E012F5FFA
:1005B0003F4F690110E000E079012FB7F894809176
:1005C000310290913202A0913302B09134022FBFD8
:1005D0008093410290934202A0934302B09344025D
:1005E00089E392E00E94530197FF6EC12FB7F89400
:1005F0008091310290913202A0913302B091340285
:100600002FBF40914102509142026091430270918C
:100610004402841B950BA60BB70B40913D025091F1
:100620003E0260913F027091400284179507A60731
:10063000B707B0F2F701E00FF11F10826CE271E032
:10064000012B09F450C045E050E063E371E0C701BD
:100650000E946A06892BC1F5CE0106960E94F1051B
:100660009A81298192272B8192272C8192272D8193
:100670009227981325C010922F0210922E0289E320
:1006800091E00E94310200E011E0F80180810E5FEC
:100690001F4F60E00E94A600F1E00C301F07A9F791
:1006A00067E471E081E00E94430289E392E00E94E6
:1006B0007501892BD9F089E392E00E945301F5CFAF
:1006C00060E571E080E0EFCF6BE370E0C7010E946E
:1006D00087068C01009729F0DC0111968C9181111D
:1006E0001BC069E571E080E00E944302DC5F0FB649
:1006F000F894DEBF0FBECDBFDF91CF911F910F9158
:10070000FF90EF90DF90CF90BF90AF909F908F9031
:100710007F906F905F900895C80101960E94F10547
:100720006C010E191F090F5F1F4F5E01BFEFAB1A5F
:10073000BDEFBB0AA801B701C5010E947806F5010B
:10074000E00FF11F1082F50180E09F012A193B099B
:100750002017310718F491918927F7CF082E000C44
:10076000990B8C159D0519F061E671E0BCCF1092D4
:100770002F0210922E0289E391E00E94310267E37A
:1007800071E0C5010E940F068C0187E0582E01150B
:10079000110509F488C068E270E0C8010E945F0694
:1007A0007C016CE270E00E945F066C014C01EFEF8F
:1007B0008E1A9E0A6CE270E0C4010E945F065C0122
:1007C0003C01FFEF6F1A7F0A69E270E0C3010E94EB
:1007D0005F06E114F10409F45EC0C114D10409F408
:1007E0005AC0A114B10409F456C0009709F453C0CB
:1007F000DC011C92F5011082D6011C92C701019602
:100800000E94F1058C01C4010E94F1056C01C30135
:100810000E94F1057C016FE671E006301105B8F524
:10082000A0902E02B0902F026CE771E0B4E1AB16FD
:10083000B1046CF5C501019690932F0280932E02AE
:100840000E94F2003B014C015A9CF0015B9CF00DB0
:100850001124EE55FE4F28EE33E0D6010E945206D9
:10086000660D771D881D991D608371838283938334
:100870001583048381E0EF2809F480E0868367E331
:1008800071E090E080E00E940F068C0180CF80E054
:100890000E944302F4CF8FE891E00E942402C80135
:1008A0000E943102ECCF66E971E081E00E944302D0
:1008B00089E392E00E947501892B09F417CF89E33F
:1008C00092E00E945301F4CF8E33910509F4B2CE29
:1008D000D6018D936D010F5F1F4F0F3FB1E01B07D6
:1008E00009F06BCEA7CE1F920F920FB60F92112474
:1008F0002F933F938F939F93AF93BF938091310238
:1009000090913202A0913302B091340230913002C2
:1009100023E0230F2D3758F50196A11DB11D20931B
:1009200030028093310290933202A0933302B0934D
:1009300034028091350290913602A0913702B09135
:1009400038020196A11DB11D8093350290933602A5
:10095000A0933702B0933802BF91AF919F918F91CE
:100960003F912F910F900FBE0F901F90189526E882
:10097000230F0296A11DB11DD2CF1F920F920FB669
:100980000F9211242F933F934F935F936F937F9315
:100990008F939F93AF93BF93EF93FF9389E392E07D
:1009A0000E949501FF91EF91BF91AF919F918F911F
:1009B0007F916F915F914F913F912F910F900FBE5B
:1009C0000F901F9018951F920F920FB60F9211243F
:1009D0002F938F939F93EF93FF93E0914902F091B0
:1009E0004A028081E0914F02F091500282FD1BC0CB
:1009F0009081809152028F5F8F73209153028217F2
:100A000041F0E0915202F0E0E75CFD4F958F80935A
:100A10005202FF91EF919F918F912F910F900FBEF6
:100A20000F901F9018958081F4CF789484B58260E0
:100A300084BD84B5816084BD85B5826085BD85B582
:100A4000816085BD80916E00816080936E00109200
:100A5000810080918100826080938100809181007B
:100A6000816080938100809180008160809380000C
:100A70008091B10084608093B1008091B00081606A
:100A80008093B00080917A00846080937A00809196
:100A90007A00826080937A0080917A0081608093EE
:100AA0007A0080917A00806880937A001092C10069
:100AB000E0914902F0914A0282E08083E091450290
:100AC000F09146021082E0914702F091480280E1E5
:100AD000808310925102E0914D02F0914E0286E027
:100AE0008083E0914B02F0914C0280818061808391
:100AF000E0914B02F0914C02808188608083E0910C
:100B00004B02F0914C02808180688083E0914B021F
:100B1000F0914C0280818F7D808381E00E9487006C
:100B200082E00E94870083E00E94870084E00E94A8
:100B3000870085E00E94870086E00E94870060E0D1
:100B400081E00E94A60060E082E00E94A60060E0D2
:100B500083E00E94A60060E084E00E94A60060E0BE
:100B600085E00E94A60060E086E00E94A600C0E04A
:100B7000D0E00E9454022097E1F30E948101882373
:100B8000C1F30E940000F5CFE9E3F2E01382128284
:100B900088EE93E0A0E0B0E084839583A683B783DA
:100BA00080E191E09183808385EC90E09587848754
:100BB00084EC90E09787868780EC90E0918B808B27
:100BC00081EC90E0938B828B82EC90E0958B848B10
:100BD00086EC90E0978B868B118E128E138E148E7E
:100BE0000895FC0188279927E89421912032E9F3A0
:100BF000293010F02E30C8F32B3241F02D3239F469
:100C0000689404C00E943B06820F911D21912053DD
:100C10002A30C0F31EF4909581959F4F089546EDBC
:100C200052E00E9414060895FA01A191B081009744
:100C300019F41097E1F0CD01DC01CD010D900020F9
:100C400011F4C00113C0FB012191222319F02015DA
:100C5000D9F7F3CFFB012191201519F41E921196BB
:100C600006C02223C1F70D900020A1F7D001FA01A0
:100C7000A193B08308957AE0979F902D879F802D50
:100C8000910D11240895A29FB001B39FC001A39FAD
:100C9000700D811D1124911DB29F700D811D1124B5
:100CA000911D08950E944306B7FF0895821B930B80
:100CB0000895EE0FFF1F0590F491E02D0994FC01BB
:100CC0008191861721F08823D9F7992708953197C4
:100CD000CF010895FB01DC014150504030F08D916F
:100CE0000190801919F40020B9F7881B990B089519
:100CF000FB01DC014150504048F001900D92002072
:100D0000C9F701C01D9241505040E0F70895FC0121
:100D100081E090E00190061609F4CF010020D1F7A0
:080D200001970895F894FFCF3C
:100D280001000200030004000500060000000000A6
:100D3800B7011701440104027501530167010D0A47
:100D4800004552523A20004F4B3A2000456D7074CE
:100D5800792E0053544F503B004576656E747320CE
:100D680072657365742E0053746F707065642E001D
:100D7800426164204352432E004E6F204352432E5B
:100D880000435243206D69736D617463682E00429D
:100D98006164206368616E6E656C2E004576656ED1
:100DA80074206275666665722066756C6C2E0053D9
:100DB8006B69703A20005363686564756C65642ECE
:020DC800000029
:00000001FF
